:020000040800F2
:10000000600600201D0200082502000827020008E3
:10001000290200082B0200082D0200080000000041
:100020000000000000000000000000002F02000897
:100030003102000800000000330200083502000809
:1000400037020008370200083702000837020008AC
:100050003702000837020008D902000837020008FA
:10006000370200083702000837020008370200088C
:10007000370200083702000837020008370200087C
:1000800037020008370200083702000800000000AD
:10009000000000000000000000000000370200081F
:1000A000370200083702000837020008370200084C
:1000B000370200083702000837020008370200083C
:1000C000370200083702000837020008370200082C
:1000D000370200083702000837020008000000005D
:1000E000370200083702000837020008000000004D
:1000F00000000000000000000000000037020008BF
:10010000000000003702000837020008370200082C
:1001100000000000000000000000000000000000DF
:1001200037020008370200083702000837020008CB
:10013000370200080000000000000000000000007E
:10014000000000000000000000000000370200086E
:10015000370200083702000837020008370200089B
:10016000370200083702000800000000000000000D
:10017000000000000000000000000000000000007F
:10018000000000003702000800000000000000002E
:10019000370200083702000800F002F800F02EF8DD
:1001A0000AA090E8000C82448344AAF10107DA45D2
:1001B00001D100F023F8AFF2090EBAE80F0013F0F6
:1001C000010F18BFFB1A43F0010318478803000012
:1001D000980300000023002400250026103A28BFC1
:1001E00078C1FBD8520728BF30C148BF0B607047A9
:1001F0001FB500F0A2F91FBD10B510BD00F031F819
:100200001146FFF7F5FF00F091F900F04FF803B445
:10021000FFF7F2FF03BC00F057F8000009488047E1
:1002200009480047FEE7FEE7FEE7FEE7FEE7FEE7D8
:10023000FEE7FEE7FEE7FEE704480549054A064BF0
:100240007047000051030008990100086000002079
:1002500060060020600200206002002070477047A6
:100260007047754600F02CF8AE46050069465346C7
:1002700020F00700854618B020B5FFF7DDFFBDE888
:1002800020404FF000064FF000074FF000084FF0FD
:10029000000BAC46ACE8C009ACE8C009ACE8C0094A
:1002A000ACE8C00921F007018D46704710B504463F
:1002B000AFF300802046BDE81040FFF7A8BF000064
:1002C000004870470000002001491820ABBEFEE73F
:1002D000260002007047000010B543F61440C4F237
:1002E00001000168C90708BF10BD016840F6144449
:1002F000C4F2020421F00101016000BF206820F473
:1003000000402060206840F48050206000F0CAF86F
:10031000206820F480502060206840F40050206065
:1003200000F0C0F8206820F400502060206840F4FD
:100330008040206000F0B6F8206820F48040206003
:10034000206840F40040206000F0ACF8D6E70000E0
:100350004EF68850CEF20000016841F47001016051
:100360007047000043F60800C4F2020050F8081C71
:1003700021F4803140F8081C50F8081C41F4803109
:1003800040F8081C50F8081C8903FBD5816B21F04C
:1003900080518163816B41F08051816347F200019C
:1003A000C4F200010A6822F440420A600A6842F47A
:1003B00000420A60D0F8F81340F20F729143C0F87F
:1003C000F813D0F8F8131143C0F8F813016848F295
:1003D000000221F0F00101600168CFF6BC7221F447
:1003E0007C410160016841F41441016050F8041C33
:1003F000114040F8041C50F8041C41F4800141F401
:10040000217140F8041C50F8081C21F0807140F85C
:10041000081C50F8081C41F0807140F8081C00BF0F
:1004200050F8081C8901FBD5016821F00301016027
:10043000016841F00201016001680907FCD57047BD
:1004400043F63000C4F20200016821F009010160A6
:10045000016841F0090101604FF2004040F600419F
:10046000CFF6FF70C4F202010A5822F003020A50CC
:10047000086820F07F400860086840F0AA400860E3
:1004800040F60440C4F20200026822F470420260A6
:100490004FF20C40CFF6FF700A5822F001020A50CA
:1004A0007047000081B000200090009944F2402085
:1004B000C0F20F00814205D20099013100910099EC
:1004C0008142F9D301B0704743F64400C4F2020000
:1004D000016841F4804101604FF6084043F6004155
:1004E000CFF6FF70C4F201010A5822F00F020A5041
:1004F00043F60C40C4F20100026822F001020260DF
:10050000026842F001020260086820F00100086001
:10051000086840F0010008604EF20010CEF20000C2
:10052000016841F04001016070470000FFF71AFFC9
:10053000FFF786FFFFF7C8FFFEE7F1EE100A4FF660
:10054000FF71C0F2C03120EA010040F04070E1EEDE
:10055000100A7047640500080000002060060000D3
:04056000D4010008BA
:040000050800021DD0
:00000001FF
